:04000000FEEF3FF0E0
:100600000048656C6C6F20576F726C64202100503D
:100610004346383537340000959052EC04F00D0E07
:10062000116EFC0EE82EFED7112EFCD728EC04F03C
:100630000D0E116EFC0EE82EFED7112EFCD747ECE6
:1006400004F0000E0F6E000EF9EC03F0010E0F6EB9
:10065000C5EC03F0070E0F6E010EF9EC03F00F0E60
:100660000F6EC5EC03F00B0E126E260E116E5E0EB1
:10067000E82EFED7112EFCD7122EFAD71FEF03F06B
:10068000FEEF3FF06DEC03F0400EDFEC03F0000EE8
:10069000066E000E056E03500524D96EDA6ADF502F
:1006A00038EC04F01A0E046EF80EE82EFED7042E75
:1006B000FCD700D0054A062A06BE68EF03F00650B4
:1006C00009E1040E055CD8A068EF03F06AEF03F0BF
:1006D0004BEF03F012EC04F01200A1B672EF03F03E
:1006E00074EF03F07BEF03F0C6AE79EF03F07BEF1E
:1006F00003F07DEF03F0A196C69EC7B082EF03F032
:1007000084EF03F07DEF03F0C7B489EF03F08BEFC4
:1007100003F07DEF03F09E9612000C6E0C50F00B70
:100720000D6E0CC007F00F0E07160738F00B0E6E9B
:100730000D500D09086E0D500909096E0E500D0976
:100740000A6E0E5009090B6E080E036E42EC03F0A0
:1007500012000C6E0C50F00B0D6E0CC007F00F0E5B
:1007600007160738F00B0E6E0D500C09086E0D5071
:100770000809096E0E500C090A6E0E5008090B6E1E
:10078000080E036E42EC03F01200D0EF03F00FC02E
:10079000F6FF060EF76E0800F5508DEC03F00F2AF9
:1007A0000FC0F6FF060EF76E0800F5500009D8A43A
:1007B000DCEF03F0DEEF03F0C7EF03F01200026E90
:1007C0006DEC03F0C580C5B0E8EF03F0EAEF03F08D
:1007D000E3EF03F0C7B6EFEF03F0F1EF03F0F4EF50
:1007E00003F08C80F8EF03F0025038EC04F08C90AA
:1007F0001200106E03EF04F00F8E0EEF04F0C00E27
:100800000F120EEF04F01050000AD8B4FCEF03F002
:10081000010AD8B4FFEF03F00EEF04F00F50A9EC7B
:1008200003F012006DEC03F0C584C5B41AEF04F0B8
:100830001CEF04F015EF04F0C7B821EF04F023EF2C
:1008400004F026EF04F08C8027EF04F08C90120067
:10085000020EA9EC03F0280EA9EC03F0010EA9EC9E
:1008600003F00E0EA9EC03F0060EA9EC03F0120043
:10087000016E6DEC03F001C0C9FF9EA642EF04F0CB
:1008800044EF04F03DEF04F09E96C5501200010EB7
:10089000A9EC03F00D0E0F6EFC0EE82EFED70F2E06
:1008A000FCD71200C78EC79C280EC66EC56A090EFB
:1008B000C86E9E961200000EF86E00010CEF03F059
:047FFC005BEF04F043
:00000001FF
